{
  "contractName": "MultiOwnable",
  "abi": [
    {
      "inputs": [],
      "payable": false,
      "stateMutability": "nonpayable",
      "type": "constructor"
    },
    {
      "constant": false,
      "inputs": [
        {
          "name": "owner",
          "type": "address"
        }
      ],
      "name": "addOwner",
      "outputs": [],
      "payable": false,
      "stateMutability": "nonpayable",
      "type": "function"
    },
    {
      "constant": false,
      "inputs": [
        {
          "name": "owner",
          "type": "address"
        }
      ],
      "name": "removeOwner",
      "outputs": [],
      "payable": false,
      "stateMutability": "nonpayable",
      "type": "function"
    }
  ],
  "bytecode": "0x608060405234801561001057600080fd5b5060016000803373ffffffffffffffffffffffffffffffffffffffff1673ffffffffffffffffffffffffffffffffffffffff16815260200190815260200160002060006101000a81548160ff021916908315150217905550610318806100776000396000f30060806040526004361061004c576000357c0100000000000000000000000000000000000000000000000000000000900463ffffffff168063173825d9146100515780637065cb4814610094575b600080fd5b34801561005d57600080fd5b50610092600480360381019080803573ffffffffffffffffffffffffffffffffffffffff1690602001909291905050506100d7565b005b3480156100a057600080fd5b506100d5600480360381019080803573ffffffffffffffffffffffffffffffffffffffff1690602001909291905050506101ff565b005b6000803373ffffffffffffffffffffffffffffffffffffffff1673ffffffffffffffffffffffffffffffffffffffff16815260200190815260200160002060009054906101000a900460ff16151561012e57600080fd5b600073ffffffffffffffffffffffffffffffffffffffff168173ffffffffffffffffffffffffffffffffffffffff161415151561016a57600080fd5b3373ffffffffffffffffffffffffffffffffffffffff168173ffffffffffffffffffffffffffffffffffffffff16141515156101a557600080fd5b60008060008373ffffffffffffffffffffffffffffffffffffffff1673ffffffffffffffffffffffffffffffffffffffff16815260200190815260200160002060006101000a81548160ff02191690831515021790555050565b6000803373ffffffffffffffffffffffffffffffffffffffff1673ffffffffffffffffffffffffffffffffffffffff16815260200190815260200160002060009054906101000a900460ff16151561025657600080fd5b600073ffffffffffffffffffffffffffffffffffffffff168173ffffffffffffffffffffffffffffffffffffffff161415151561029257600080fd5b60016000808373ffffffffffffffffffffffffffffffffffffffff1673ffffffffffffffffffffffffffffffffffffffff16815260200190815260200160002060006101000a81548160ff021916908315150217905550505600a165627a7a723058201827758754515e1b4a432712702d85d28e2d7f9a74858a3f5336dd5cda69077a0029",
  "source": "pragma solidity ^0.4.22;\n\n\n/**\n * @title MultiOwnable\n * @dev The Ownable contract has an owner address, and provides basic authorization control\n * functions, this simplifies the implementation of \"user permissions\".\n */\ncontract MultiOwnable {\n  mapping(address => bool) owners;\n\n  /**\n   * @dev The Ownable constructor sets the original `owner` of the contract to the sender\n   * account.\n   */\n  constructor() public {\n    owners[msg.sender] = true;\n  }\n\n  /**\n   * @dev Throws if called by any account other than the owner.\n   */\n  modifier onlyOwner() {\n    require(owners[msg.sender]);\n    _;\n  }\n\n  /**\n   * @dev Allows the current owner to add a new owner to the owners group.\n   * @param owner The address to add to the owners group.\n   */\n  function addOwner(address owner) public onlyOwner {\n    require(owner != address(0));\n\n    owners[owner] = true;\n  }\n\n  /**\n   * @dev Allows the current owner to remove an owner from the owners group.\n   * @param owner The address to remove from the owners group.\n   */\n  function removeOwner(address owner) public onlyOwner {\n    require(owner != address(0));\n    require(owner != msg.sender);\n\n    owners[owner] = false;\n  }\n}",
  "sourcePath": "@pheme-kit/ethereum/contracts/multi-ownable.sol",
  "compiler": {
    "name": "solc",
    "version": "0.4.25+commit.59dbf8f1.Emscripten.clang"
  },
  "schemaVersion": "3.0.1",
  "updatedAt": "2019-01-16T22:19:05.243Z",
  "devdoc": {
    "methods": {
      "addOwner(address)": {
        "details": "Allows the current owner to add a new owner to the owners group.",
        "params": {
          "owner": "The address to add to the owners group."
        }
      },
      "removeOwner(address)": {
        "details": "Allows the current owner to remove an owner from the owners group.",
        "params": {
          "owner": "The address to remove from the owners group."
        }
      }
    },
    "title": "MultiOwnable"
  },
  "userdoc": {
    "methods": {}
  }
}