{
  "contractName": "Registry",
  "abi": [
    {
      "constant": true,
      "inputs": [],
      "name": "owner",
      "outputs": [
        {
          "name": "",
          "type": "address"
        }
      ],
      "payable": false,
      "stateMutability": "view",
      "type": "function",
      "signature": "0x8da5cb5b"
    },
    {
      "constant": false,
      "inputs": [
        {
          "name": "newOwner",
          "type": "address"
        }
      ],
      "name": "transferOwnership",
      "outputs": [],
      "payable": false,
      "stateMutability": "nonpayable",
      "type": "function",
      "signature": "0xf2fde38b"
    },
    {
      "inputs": [
        {
          "name": "handleStorageAddress",
          "type": "address"
        }
      ],
      "payable": false,
      "stateMutability": "nonpayable",
      "type": "constructor",
      "signature": "constructor"
    },
    {
      "anonymous": false,
      "inputs": [
        {
          "indexed": true,
          "name": "handle",
          "type": "bytes32"
        },
        {
          "indexed": false,
          "name": "key",
          "type": "string"
        }
      ],
      "name": "RecordUpdated",
      "type": "event",
      "signature": "0xc2792f3dddd5fd6ca0ba6d9d105caa850f2d33bb2ed740b980018fe25fb7fcbc"
    },
    {
      "anonymous": false,
      "inputs": [
        {
          "indexed": true,
          "name": "handle",
          "type": "bytes32"
        }
      ],
      "name": "RecordAdded",
      "type": "event",
      "signature": "0x46b180ca617c9e4a52d71f4b6cc0fee3f5a7a851530739d3f5054e9f5bd40594"
    },
    {
      "anonymous": false,
      "inputs": [
        {
          "indexed": true,
          "name": "handle",
          "type": "bytes32"
        }
      ],
      "name": "RecordRemoved",
      "type": "event",
      "signature": "0x3813d5e4633aa2a982d4b41c4798354673e514a3dde9fa140a8a32ec1c2208f1"
    },
    {
      "anonymous": false,
      "inputs": [
        {
          "indexed": true,
          "name": "previousOwner",
          "type": "address"
        },
        {
          "indexed": true,
          "name": "newOwner",
          "type": "address"
        }
      ],
      "name": "OwnershipTransferred",
      "type": "event",
      "signature": "0x8be0079c531659141344cd1fd0a4f28419497f9722a3daafe3b4186f6b6457e0"
    },
    {
      "constant": true,
      "inputs": [
        {
          "name": "handle",
          "type": "bytes32"
        }
      ],
      "name": "isHandleRegistered",
      "outputs": [
        {
          "name": "recordExists",
          "type": "bool"
        }
      ],
      "payable": false,
      "stateMutability": "view",
      "type": "function",
      "signature": "0xbb7da30b"
    },
    {
      "constant": true,
      "inputs": [
        {
          "name": "owner",
          "type": "address"
        }
      ],
      "name": "isOwnerRegistered",
      "outputs": [
        {
          "name": "recordExists",
          "type": "bool"
        }
      ],
      "payable": false,
      "stateMutability": "view",
      "type": "function",
      "signature": "0x2967d1d8"
    },
    {
      "constant": true,
      "inputs": [
        {
          "name": "owner",
          "type": "address"
        }
      ],
      "name": "getHandleByOwner",
      "outputs": [
        {
          "name": "handle",
          "type": "bytes32"
        }
      ],
      "payable": false,
      "stateMutability": "view",
      "type": "function",
      "signature": "0x1a0d6119"
    },
    {
      "constant": false,
      "inputs": [
        {
          "name": "handle",
          "type": "bytes32"
        }
      ],
      "name": "registerHandle",
      "outputs": [],
      "payable": false,
      "stateMutability": "nonpayable",
      "type": "function",
      "signature": "0x2c0fc8cb"
    },
    {
      "constant": false,
      "inputs": [
        {
          "name": "handle",
          "type": "bytes32"
        }
      ],
      "name": "deregisterHandle",
      "outputs": [],
      "payable": false,
      "stateMutability": "nonpayable",
      "type": "function",
      "signature": "0x895c8ba2"
    },
    {
      "constant": true,
      "inputs": [
        {
          "name": "handle",
          "type": "bytes32"
        }
      ],
      "name": "getHandlePointer",
      "outputs": [
        {
          "name": "pointer",
          "type": "string"
        }
      ],
      "payable": false,
      "stateMutability": "view",
      "type": "function",
      "signature": "0x26b1e401"
    },
    {
      "constant": false,
      "inputs": [
        {
          "name": "handle",
          "type": "bytes32"
        },
        {
          "name": "pointer",
          "type": "string"
        }
      ],
      "name": "setHandlePointer",
      "outputs": [],
      "payable": false,
      "stateMutability": "nonpayable",
      "type": "function",
      "signature": "0xa7c02509"
    },
    {
      "constant": true,
      "inputs": [
        {
          "name": "handle",
          "type": "bytes32"
        }
      ],
      "name": "getHandleProfile",
      "outputs": [
        {
          "name": "profile",
          "type": "string"
        }
      ],
      "payable": false,
      "stateMutability": "view",
      "type": "function",
      "signature": "0xbbde2655"
    },
    {
      "constant": false,
      "inputs": [
        {
          "name": "handle",
          "type": "bytes32"
        },
        {
          "name": "profile",
          "type": "string"
        }
      ],
      "name": "setHandleProfile",
      "outputs": [],
      "payable": false,
      "stateMutability": "nonpayable",
      "type": "function",
      "signature": "0x7abcd51d"
    },
    {
      "constant": true,
      "inputs": [
        {
          "name": "handle",
          "type": "bytes32"
        }
      ],
      "name": "getHandleOwner",
      "outputs": [
        {
          "name": "value",
          "type": "address"
        }
      ],
      "payable": false,
      "stateMutability": "view",
      "type": "function",
      "signature": "0x443bd56f"
    },
    {
      "constant": false,
      "inputs": [
        {
          "name": "handle",
          "type": "bytes32"
        },
        {
          "name": "value",
          "type": "address"
        }
      ],
      "name": "setHandleOwner",
      "outputs": [],
      "payable": false,
      "stateMutability": "nonpayable",
      "type": "function",
      "signature": "0x0248bb2e"
    },
    {
      "constant": true,
      "inputs": [],
      "name": "getHandleCount",
      "outputs": [
        {
          "name": "count",
          "type": "uint256"
        }
      ],
      "payable": false,
      "stateMutability": "view",
      "type": "function",
      "signature": "0xb0b04d0b"
    },
    {
      "constant": true,
      "inputs": [
        {
          "name": "index",
          "type": "uint256"
        }
      ],
      "name": "getHandleAt",
      "outputs": [
        {
          "name": "handle",
          "type": "bytes32"
        }
      ],
      "payable": false,
      "stateMutability": "view",
      "type": "function",
      "signature": "0x424e45ec"
    }
  ],
  "bytecode": "0x60806040526000600160006101000a81548173ffffffffffffffffffffffffffffffffffffffff021916908373ffffffffffffffffffffffffffffffffffffffff16021790555034801561005257600080fd5b50604051602080611eea83398101806040528101908080519060200190929190505050336000806101000a81548173ffffffffffffffffffffffffffffffffffffffff021916908373ffffffffffffffffffffffffffffffffffffffff16021790555080600160006101000a81548173ffffffffffffffffffffffffffffffffffffffff021916908373ffffffffffffffffffffffffffffffffffffffff16021790555050611de4806101066000396000f3006080604052600436106100db576000357c0100000000000000000000000000000000000000000000000000000000900463ffffffff1680630248bb2e146100e05780631a0d61191461013157806326b1e401146101905780632967d1d81461023a5780632c0fc8cb14610295578063424e45ec146102c6578063443bd56f1461030f5780637abcd51d14610380578063895c8ba2146103c95780638da5cb5b146103fa578063a7c0250914610451578063b0b04d0b1461049a578063bb7da30b146104c5578063bbde26551461050e578063f2fde38b146105b8575b600080fd5b3480156100ec57600080fd5b5061012f6004803603810190808035600019169060200190929190803573ffffffffffffffffffffffffffffffffffffffff1690602001909291905050506105fb565b005b34801561013d57600080fd5b50610172600480360381019080803573ffffffffffffffffffffffffffffffffffffffff1690602001909291905050506108ea565b60405180826000191660001916815260200191505060405180910390f35b34801561019c57600080fd5b506101bf6004803603810190808035600019169060200190929190505050610a9b565b6040518080602001828103825283818151815260200191508051906020019080838360005b838110156101ff5780820151818401526020810190506101e4565b50505050905090810190601f16801561022c5780820380516001836020036101000a031916815260200191505b509250505060405180910390f35b34801561024657600080fd5b5061027b600480360381019080803573ffffffffffffffffffffffffffffffffffffffff169060200190929190505050610c27565b604051808215151515815260200191505060405180910390f35b3480156102a157600080fd5b506102c46004803603810190808035600019169060200190929190505050610c40565b005b3480156102d257600080fd5b506102f160048036038101908080359060200190929190505050610e7f565b60405180826000191660001916815260200191505060405180910390f35b34801561031b57600080fd5b5061033e6004803603810190808035600019169060200190929190505050610f54565b604051808273ffffffffffffffffffffffffffffffffffffffff1673ffffffffffffffffffffffffffffffffffffffff16815260200191505060405180910390f35b34801561038c57600080fd5b506103c7600480360381019080803560001916906020019092919080359060200190820180359060200191909192939192939050505061108a565b005b3480156103d557600080fd5b506103f86004803603810190808035600019169060200190929190505050611368565b005b34801561040657600080fd5b5061040f6115a1565b604051808273ffffffffffffffffffffffffffffffffffffffff1673ffffffffffffffffffffffffffffffffffffffff16815260200191505060405180910390f35b34801561045d57600080fd5b5061049860048036038101908080356000191690602001909291908035906020019082018035906020019190919293919293905050506115c6565b005b3480156104a657600080fd5b506104af6118a4565b6040518082815260200191505060405180910390f35b3480156104d157600080fd5b506104f4600480360381019080803560001916906020019092919050505061196c565b604051808215151515815260200191505060405180910390f35b34801561051a57600080fd5b5061053d6004803603810190808035600019169060200190929190505050611ad7565b6040518080602001828103825283818151815260200191508051906020019080838360005b8381101561057d578082015181840152602081019050610562565b50505050905090810190601f1680156105aa5780820380516001836020036101000a031916815260200191505b509250505060405180910390f35b3480156105c457600080fd5b506105f9600480360381019080803573ffffffffffffffffffffffffffffffffffffffff169060200190929190505050611c63565b005b813373ffffffffffffffffffffffffffffffffffffffff16600160009054906101000a900473ffffffffffffffffffffffffffffffffffffffff1673ffffffffffffffffffffffffffffffffffffffff1663d3a396868360405180807f6f776e6572000000000000000000000000000000000000000000000000000000815250600501905060405180910390206040518363ffffffff167c0100000000000000000000000000000000000000000000000000000000028152600401808360001916600019168152602001826000191660001916815260200192505050602060405180830381600087803b1580156106f157600080fd5b505af1158015610705573d6000803e3d6000fd5b505050506040513d602081101561071b57600080fd5b810190808051906020019092919050505073ffffffffffffffffffffffffffffffffffffffff1614151561074e57600080fd5b600160009054906101000a900473ffffffffffffffffffffffffffffffffffffffff1673ffffffffffffffffffffffffffffffffffffffff166379a7cfee8460405180807f6f776e657200000000000000000000000000000000000000000000000000000081525060050190506040518091039020856040518463ffffffff167c010000000000000000000000000000000000000000000000000000000002815260040180846000191660001916815260200183600019166000191681526020018273ffffffffffffffffffffffffffffffffffffffff1673ffffffffffffffffffffffffffffffffffffffff1681526020019350505050600060405180830381600087803b15801561086057600080fd5b505af1158015610874573d6000803e3d6000fd5b5050505082600019167fc2792f3dddd5fd6ca0ba6d9d105caa850f2d33bb2ed740b980018fe25fb7fcbc6040518080602001828103825260058152602001807f6f776e657200000000000000000000000000000000000000000000000000000081525060200191505060405180910390a2505050565b6000806000806108f86118a4565b14156109075760009250610a94565b60405180807f6f776e6572000000000000000000000000000000000000000000000000000000815250600501905060405180910390209150600090505b61094c6118a4565b811015610a8f578373ffffffffffffffffffffffffffffffffffffffff16600160009054906101000a900473ffffffffffffffffffffffffffffffffffffffff1673ffffffffffffffffffffffffffffffffffffffff1663d3a396866109b184610e7f565b856040518363ffffffff167c0100000000000000000000000000000000000000000000000000000000028152600401808360001916600019168152602001826000191660001916815260200192505050602060405180830381600087803b158015610a1b57600080fd5b505af1158015610a2f573d6000803e3d6000fd5b505050506040513d6020811015610a4557600080fd5b810190808051906020019092919050505073ffffffffffffffffffffffffffffffffffffffff161415610a8257610a7b81610e7f565b9250610a94565b8080600101915050610944565b600092505b5050919050565b6060610aa68261196c565b1515610ab157600080fd5b600160009054906101000a900473ffffffffffffffffffffffffffffffffffffffff1673ffffffffffffffffffffffffffffffffffffffff166331477b9b8360405180807f706f696e74657200000000000000000000000000000000000000000000000000815250600701905060405180910390206040518363ffffffff167c0100000000000000000000000000000000000000000000000000000000028152600401808360001916600019168152602001826000191660001916815260200192505050600060405180830381600087803b158015610b8f57600080fd5b505af1158015610ba3573d6000803e3d6000fd5b505050506040513d6000823e3d601f19601f820116820180604052506020811015610bcd57600080fd5b810190808051640100000000811115610be557600080fd5b82810190506020810184811115610bfb57600080fd5b8151856001820283011164010000000082111715610c1857600080fd5b50509291905050509050919050565b600080610c33836108ea565b6000191614159050919050565b6000339050610c4e8261196c565b151515610c5a57600080fd5b610c6381610c27565b151515610c6f57600080fd5b600160009054906101000a900473ffffffffffffffffffffffffffffffffffffffff1673ffffffffffffffffffffffffffffffffffffffff16630b33ab77836040518263ffffffff167c0100000000000000000000000000000000000000000000000000000000028152600401808260001916600019168152602001915050600060405180830381600087803b158015610d0857600080fd5b505af1158015610d1c573d6000803e3d6000fd5b50505050600160009054906101000a900473ffffffffffffffffffffffffffffffffffffffff1673ffffffffffffffffffffffffffffffffffffffff166379a7cfee8360405180807f6f776e657200000000000000000000000000000000000000000000000000000081525060050190506040518091039020846040518463ffffffff167c010000000000000000000000000000000000000000000000000000000002815260040180846000191660001916815260200183600019166000191681526020018273ffffffffffffffffffffffffffffffffffffffff1673ffffffffffffffffffffffffffffffffffffffff1681526020019350505050600060405180830381600087803b158015610e3257600080fd5b505af1158015610e46573d6000803e3d6000fd5b5050505081600019167f46b180ca617c9e4a52d71f4b6cc0fee3f5a7a851530739d3f5054e9f5bd4059460405160405180910390a25050565b6000600160009054906101000a900473ffffffffffffffffffffffffffffffffffffffff1673ffffffffffffffffffffffffffffffffffffffff166348bfab58836040518263ffffffff167c010000000000000000000000000000000000000000000000000000000002815260040180828152602001915050602060405180830381600087803b158015610f1257600080fd5b505af1158015610f26573d6000803e3d6000fd5b505050506040513d6020811015610f3c57600080fd5b81019080805190602001909291905050509050919050565b6000610f5f8261196c565b1515610f6a57600080fd5b600160009054906101000a900473ffffffffffffffffffffffffffffffffffffffff1673ffffffffffffffffffffffffffffffffffffffff1663d3a396868360405180807f6f776e6572000000000000000000000000000000000000000000000000000000815250600501905060405180910390206040518363ffffffff167c0100000000000000000000000000000000000000000000000000000000028152600401808360001916600019168152602001826000191660001916815260200192505050602060405180830381600087803b15801561104857600080fd5b505af115801561105c573d6000803e3d6000fd5b505050506040513d602081101561107257600080fd5b81019080805190602001909291905050509050919050565b823373ffffffffffffffffffffffffffffffffffffffff16600160009054906101000a900473ffffffffffffffffffffffffffffffffffffffff1673ffffffffffffffffffffffffffffffffffffffff1663d3a396868360405180807f6f776e6572000000000000000000000000000000000000000000000000000000815250600501905060405180910390206040518363ffffffff167c0100000000000000000000000000000000000000000000000000000000028152600401808360001916600019168152602001826000191660001916815260200192505050602060405180830381600087803b15801561118057600080fd5b505af1158015611194573d6000803e3d6000fd5b505050506040513d60208110156111aa57600080fd5b810190808051906020019092919050505073ffffffffffffffffffffffffffffffffffffffff161415156111dd57600080fd5b600160009054906101000a900473ffffffffffffffffffffffffffffffffffffffff1673ffffffffffffffffffffffffffffffffffffffff1663235913f58560405180807f70726f66696c65000000000000000000000000000000000000000000000000008152506007019050604051809103902086866040518563ffffffff167c01000000000000000000000000000000000000000000000000000000000281526004018085600019166000191681526020018460001916600019168152602001806020018281038252848482818152602001925080828437820191505095505050505050600060405180830381600087803b1580156112dd57600080fd5b505af11580156112f1573d6000803e3d6000fd5b5050505083600019167fc2792f3dddd5fd6ca0ba6d9d105caa850f2d33bb2ed740b980018fe25fb7fcbc6040518080602001828103825260078152602001807f70726f66696c650000000000000000000000000000000000000000000000000081525060200191505060405180910390a250505050565b803373ffffffffffffffffffffffffffffffffffffffff16600160009054906101000a900473ffffffffffffffffffffffffffffffffffffffff1673ffffffffffffffffffffffffffffffffffffffff1663d3a396868360405180807f6f776e6572000000000000000000000000000000000000000000000000000000815250600501905060405180910390206040518363ffffffff167c0100000000000000000000000000000000000000000000000000000000028152600401808360001916600019168152602001826000191660001916815260200192505050602060405180830381600087803b15801561145e57600080fd5b505af1158015611472573d6000803e3d6000fd5b505050506040513d602081101561148857600080fd5b810190808051906020019092919050505073ffffffffffffffffffffffffffffffffffffffff161415156114bb57600080fd5b600160009054906101000a900473ffffffffffffffffffffffffffffffffffffffff1673ffffffffffffffffffffffffffffffffffffffff1663de8c5946836040518263ffffffff167c0100000000000000000000000000000000000000000000000000000000028152600401808260001916600019168152602001915050600060405180830381600087803b15801561155457600080fd5b505af1158015611568573d6000803e3d6000fd5b5050505081600019167f3813d5e4633aa2a982d4b41c4798354673e514a3dde9fa140a8a32ec1c2208f160405160405180910390a25050565b6000809054906101000a900473ffffffffffffffffffffffffffffffffffffffff1681565b823373ffffffffffffffffffffffffffffffffffffffff16600160009054906101000a900473ffffffffffffffffffffffffffffffffffffffff1673ffffffffffffffffffffffffffffffffffffffff1663d3a396868360405180807f6f776e6572000000000000000000000000000000000000000000000000000000815250600501905060405180910390206040518363ffffffff167c0100000000000000000000000000000000000000000000000000000000028152600401808360001916600019168152602001826000191660001916815260200192505050602060405180830381600087803b1580156116bc57600080fd5b505af11580156116d0573d6000803e3d6000fd5b505050506040513d60208110156116e657600080fd5b810190808051906020019092919050505073ffffffffffffffffffffffffffffffffffffffff1614151561171957600080fd5b600160009054906101000a900473ffffffffffffffffffffffffffffffffffffffff1673ffffffffffffffffffffffffffffffffffffffff1663235913f58560405180807f706f696e746572000000000000000000000000000000000000000000000000008152506007019050604051809103902086866040518563ffffffff167c01000000000000000000000000000000000000000000000000000000000281526004018085600019166000191681526020018460001916600019168152602001806020018281038252848482818152602001925080828437820191505095505050505050600060405180830381600087803b15801561181957600080fd5b505af115801561182d573d6000803e3d6000fd5b5050505083600019167fc2792f3dddd5fd6ca0ba6d9d105caa850f2d33bb2ed740b980018fe25fb7fcbc6040518080602001828103825260078152602001807f706f696e7465720000000000000000000000000000000000000000000000000081525060200191505060405180910390a250505050565b6000600160009054906101000a900473ffffffffffffffffffffffffffffffffffffffff1673ffffffffffffffffffffffffffffffffffffffff1663b0b04d0b6040518163ffffffff167c0100000000000000000000000000000000000000000000000000000000028152600401602060405180830381600087803b15801561192c57600080fd5b505af1158015611940573d6000803e3d6000fd5b505050506040513d602081101561195657600080fd5b8101908080519060200190929190505050905090565b6000806119776118a4565b14156119865760009050611ad2565b600073ffffffffffffffffffffffffffffffffffffffff16600160009054906101000a900473ffffffffffffffffffffffffffffffffffffffff1673ffffffffffffffffffffffffffffffffffffffff1663d3a396868460405180807f6f776e6572000000000000000000000000000000000000000000000000000000815250600501905060405180910390206040518363ffffffff167c0100000000000000000000000000000000000000000000000000000000028152600401808360001916600019168152602001826000191660001916815260200192505050602060405180830381600087803b158015611a7c57600080fd5b505af1158015611a90573d6000803e3d6000fd5b505050506040513d6020811015611aa657600080fd5b810190808051906020019092919050505073ffffffffffffffffffffffffffffffffffffffff16141590505b919050565b6060611ae28261196c565b1515611aed57600080fd5b600160009054906101000a900473ffffffffffffffffffffffffffffffffffffffff1673ffffffffffffffffffffffffffffffffffffffff166331477b9b8360405180807f70726f66696c6500000000000000000000000000000000000000000000000000815250600701905060405180910390206040518363ffffffff167c0100000000000000000000000000000000000000000000000000000000028152600401808360001916600019168152602001826000191660001916815260200192505050600060405180830381600087803b158015611bcb57600080fd5b505af1158015611bdf573d6000803e3d6000fd5b505050506040513d6000823e3d601f19601f820116820180604052506020811015611c0957600080fd5b810190808051640100000000811115611c2157600080fd5b82810190506020810184811115611c3757600080fd5b8151856001820283011164010000000082111715611c5457600080fd5b50509291905050509050919050565b6000809054906101000a900473ffffffffffffffffffffffffffffffffffffffff1673ffffffffffffffffffffffffffffffffffffffff163373ffffffffffffffffffffffffffffffffffffffff16141515611cbe57600080fd5b600073ffffffffffffffffffffffffffffffffffffffff168173ffffffffffffffffffffffffffffffffffffffff1614151515611cfa57600080fd5b8073ffffffffffffffffffffffffffffffffffffffff166000809054906101000a900473ffffffffffffffffffffffffffffffffffffffff1673ffffffffffffffffffffffffffffffffffffffff167f8be0079c531659141344cd1fd0a4f28419497f9722a3daafe3b4186f6b6457e060405160405180910390a3806000806101000a81548173ffffffffffffffffffffffffffffffffffffffff021916908373ffffffffffffffffffffffffffffffffffffffff160217905550505600a165627a7a723058204ce7164e7db215d6aca9de6f96b9f66d68ff28f39ccd45fe4ab6ee50943a50570029",
  "source": "pragma solidity ^0.4.23;\n\nimport \"./ownable.sol\";\nimport \"./storage.sol\";\n\ncontract Registry is Ownable {\n  Storage handleStorage = Storage(0);\n\n  event RecordUpdated(bytes32 indexed handle, string key);\n  event RecordAdded(bytes32 indexed handle);\n  event RecordRemoved(bytes32 indexed handle);\n\n  constructor(address handleStorageAddress) public {\n    handleStorage = Storage(handleStorageAddress);\n  }\n\n  modifier guardByHandle(bytes32 handle) {\n    require(handleStorage.getAddress(handle, keccak256(\"owner\")) == msg.sender);\n    _;\n  }\n\n  function isHandleRegistered(bytes32 handle)\n    public\n    view\n    returns(bool recordExists)\n  {\n    if (getHandleCount() == 0) {\n      return false;\n    }\n\n    return handleStorage.getAddress(handle, keccak256(\"owner\")) != address(0);\n  }\n\n  function isOwnerRegistered(address owner)\n    public\n    view\n    returns(bool recordExists)\n  {\n    return getHandleByOwner(owner) != \"\";\n  }\n\n  function getHandleByOwner(address owner) \n    public\n    view\n    returns(bytes32 handle)\n  {\n    if (getHandleCount() == 0) {\n      return \"\";\n    }\n\n    bytes32 ownerKey = keccak256(\"owner\");\n    for (uint i = 0; i < getHandleCount(); i++) {\n      if (handleStorage.getAddress(getHandleAt(i), ownerKey) == owner) {\n        return getHandleAt(i);\n      }\n    }\n\n    return \"\";\n  }\n\n\n  function registerHandle(bytes32 handle)\n    external\n  {\n    address owner = msg.sender;\n\n    require(!isHandleRegistered(handle));\n    require(!isOwnerRegistered(owner));\n\n    handleStorage.addHandle(handle);\n    handleStorage.setAddress(handle, keccak256(\"owner\"), owner);\n\n    emit RecordAdded(handle);\n  }\n\n  function deregisterHandle(bytes32 handle)\n    external\n    guardByHandle(handle)\n  {\n\n    handleStorage.removeHandle(handle);\n\n    emit RecordRemoved(handle);\n  }\n\n  function getHandlePointer(bytes32 handle)\n    external\n    view\n    returns(string pointer)\n  {\n    require(isHandleRegistered(handle));\n    return handleStorage.getString(handle, keccak256(\"pointer\"));\n  }\n\n  function setHandlePointer(bytes32 handle, string pointer)\n    guardByHandle(handle)\n    external\n  {\n    handleStorage.setString(handle, keccak256(\"pointer\"), pointer);\n\n    emit RecordUpdated(handle, \"pointer\");\n  }\n\n  function getHandleProfile(bytes32 handle)\n    external\n    view\n    returns(string profile)\n  {\n    require(isHandleRegistered(handle));\n    return handleStorage.getString(handle, keccak256(\"profile\"));\n  }\n\n  function setHandleProfile(bytes32 handle, string profile)\n    guardByHandle(handle)\n    external\n  {\n    handleStorage.setString(handle, keccak256(\"profile\"), profile);\n\n    emit RecordUpdated(handle, \"profile\");\n  }\n\n  function getHandleOwner(bytes32 handle)\n    external\n    view\n    returns(address value)\n  {\n    require(isHandleRegistered(handle));\n    return handleStorage.getAddress(handle, keccak256(\"owner\"));\n  }\n\n  function setHandleOwner(bytes32 handle, address value)\n    external\n    guardByHandle(handle)\n  {\n    handleStorage.setAddress(handle, keccak256(\"owner\"), value);\n    emit RecordUpdated(handle, \"owner\");\n  }\n\n  function getHandleCount()\n    public\n    view\n    returns(uint count)\n  {\n    return handleStorage.getHandleCount();\n  }\n\n  function getHandleAt(uint index)\n    public\n    view\n    returns(bytes32 handle)\n  {\n    return handleStorage.handleList(index);\n  }\n}",
  "sourcePath": "@pheme-kit/ethereum/contracts/registry.sol",
  "compiler": {
    "name": "solc",
    "version": "0.4.25+commit.59dbf8f1.Emscripten.clang"
  },
  "schemaVersion": "3.0.1",
  "updatedAt": "2019-01-16T22:19:06.065Z",
  "devdoc": {
    "methods": {
      "transferOwnership(address)": {
        "details": "Allows the current owner to transfer control of the contract to a newOwner.",
        "params": {
          "newOwner": "The address to transfer ownership to."
        }
      }
    }
  },
  "userdoc": {
    "methods": {}
  }
}