{
  "contractName": "Storage",
  "abi": [
    {
      "constant": false,
      "inputs": [
        {
          "name": "owner",
          "type": "address"
        }
      ],
      "name": "removeOwner",
      "outputs": [],
      "payable": false,
      "stateMutability": "nonpayable",
      "type": "function",
      "signature": "0x173825d9"
    },
    {
      "constant": true,
      "inputs": [
        {
          "name": "",
          "type": "uint256"
        }
      ],
      "name": "handleList",
      "outputs": [
        {
          "name": "",
          "type": "bytes32"
        }
      ],
      "payable": false,
      "stateMutability": "view",
      "type": "function",
      "signature": "0x48bfab58"
    },
    {
      "constant": false,
      "inputs": [
        {
          "name": "owner",
          "type": "address"
        }
      ],
      "name": "addOwner",
      "outputs": [],
      "payable": false,
      "stateMutability": "nonpayable",
      "type": "function",
      "signature": "0x7065cb48"
    },
    {
      "constant": true,
      "inputs": [
        {
          "name": "",
          "type": "bytes32"
        }
      ],
      "name": "handleMap",
      "outputs": [
        {
          "name": "",
          "type": "uint256"
        }
      ],
      "payable": false,
      "stateMutability": "view",
      "type": "function",
      "signature": "0xd939bb0a"
    },
    {
      "constant": false,
      "inputs": [
        {
          "name": "handleToAdd",
          "type": "bytes32"
        }
      ],
      "name": "addHandle",
      "outputs": [],
      "payable": false,
      "stateMutability": "nonpayable",
      "type": "function",
      "signature": "0x0b33ab77"
    },
    {
      "constant": false,
      "inputs": [
        {
          "name": "handleToRemove",
          "type": "bytes32"
        }
      ],
      "name": "removeHandle",
      "outputs": [],
      "payable": false,
      "stateMutability": "nonpayable",
      "type": "function",
      "signature": "0xde8c5946"
    },
    {
      "constant": true,
      "inputs": [],
      "name": "getHandleCount",
      "outputs": [
        {
          "name": "count",
          "type": "uint256"
        }
      ],
      "payable": false,
      "stateMutability": "view",
      "type": "function",
      "signature": "0xb0b04d0b"
    },
    {
      "constant": false,
      "inputs": [
        {
          "name": "handle",
          "type": "bytes32"
        },
        {
          "name": "key",
          "type": "bytes32"
        },
        {
          "name": "value",
          "type": "uint256"
        }
      ],
      "name": "setUint",
      "outputs": [],
      "payable": false,
      "stateMutability": "nonpayable",
      "type": "function",
      "signature": "0x1d60084b"
    },
    {
      "constant": true,
      "inputs": [
        {
          "name": "handle",
          "type": "bytes32"
        },
        {
          "name": "key",
          "type": "bytes32"
        }
      ],
      "name": "getUint",
      "outputs": [
        {
          "name": "value",
          "type": "uint256"
        }
      ],
      "payable": false,
      "stateMutability": "view",
      "type": "function",
      "signature": "0x7a6ad926"
    },
    {
      "constant": false,
      "inputs": [
        {
          "name": "handle",
          "type": "bytes32"
        },
        {
          "name": "key",
          "type": "bytes32"
        },
        {
          "name": "value",
          "type": "string"
        }
      ],
      "name": "setString",
      "outputs": [],
      "payable": false,
      "stateMutability": "nonpayable",
      "type": "function",
      "signature": "0x235913f5"
    },
    {
      "constant": true,
      "inputs": [
        {
          "name": "handle",
          "type": "bytes32"
        },
        {
          "name": "key",
          "type": "bytes32"
        }
      ],
      "name": "getString",
      "outputs": [
        {
          "name": "value",
          "type": "string"
        }
      ],
      "payable": false,
      "stateMutability": "view",
      "type": "function",
      "signature": "0x31477b9b"
    },
    {
      "constant": false,
      "inputs": [
        {
          "name": "handle",
          "type": "bytes32"
        },
        {
          "name": "key",
          "type": "bytes32"
        },
        {
          "name": "value",
          "type": "address"
        }
      ],
      "name": "setAddress",
      "outputs": [],
      "payable": false,
      "stateMutability": "nonpayable",
      "type": "function",
      "signature": "0x79a7cfee"
    },
    {
      "constant": true,
      "inputs": [
        {
          "name": "handle",
          "type": "bytes32"
        },
        {
          "name": "key",
          "type": "bytes32"
        }
      ],
      "name": "getAddress",
      "outputs": [
        {
          "name": "value",
          "type": "address"
        }
      ],
      "payable": false,
      "stateMutability": "view",
      "type": "function",
      "signature": "0xd3a39686"
    },
    {
      "constant": false,
      "inputs": [
        {
          "name": "handle",
          "type": "bytes32"
        },
        {
          "name": "key",
          "type": "bytes32"
        },
        {
          "name": "value",
          "type": "int256"
        }
      ],
      "name": "setInt",
      "outputs": [],
      "payable": false,
      "stateMutability": "nonpayable",
      "type": "function",
      "signature": "0x061c8800"
    },
    {
      "constant": true,
      "inputs": [
        {
          "name": "handle",
          "type": "bytes32"
        },
        {
          "name": "key",
          "type": "bytes32"
        }
      ],
      "name": "getInt",
      "outputs": [
        {
          "name": "value",
          "type": "int256"
        }
      ],
      "payable": false,
      "stateMutability": "view",
      "type": "function",
      "signature": "0xa6fbf3d2"
    },
    {
      "constant": false,
      "inputs": [
        {
          "name": "handle",
          "type": "bytes32"
        },
        {
          "name": "key",
          "type": "bytes32"
        },
        {
          "name": "value",
          "type": "bytes"
        }
      ],
      "name": "setBytes",
      "outputs": [],
      "payable": false,
      "stateMutability": "nonpayable",
      "type": "function",
      "signature": "0xb4bfee4b"
    },
    {
      "constant": true,
      "inputs": [
        {
          "name": "handle",
          "type": "bytes32"
        },
        {
          "name": "key",
          "type": "bytes32"
        }
      ],
      "name": "getBytes",
      "outputs": [
        {
          "name": "value",
          "type": "bytes"
        }
      ],
      "payable": false,
      "stateMutability": "view",
      "type": "function",
      "signature": "0xc7750f29"
    },
    {
      "constant": false,
      "inputs": [
        {
          "name": "handle",
          "type": "bytes32"
        },
        {
          "name": "key",
          "type": "bytes32"
        },
        {
          "name": "value",
          "type": "bool"
        }
      ],
      "name": "setBool",
      "outputs": [],
      "payable": false,
      "stateMutability": "nonpayable",
      "type": "function",
      "signature": "0xf0f53ee4"
    },
    {
      "constant": true,
      "inputs": [
        {
          "name": "handle",
          "type": "bytes32"
        },
        {
          "name": "key",
          "type": "bytes32"
        }
      ],
      "name": "getBool",
      "outputs": [
        {
          "name": "value",
          "type": "bool"
        }
      ],
      "payable": false,
      "stateMutability": "view",
      "type": "function",
      "signature": "0x98eaf11c"
    }
  ],
  "bytecode": "0x608060405260016000803373ffffffffffffffffffffffffffffffffffffffff1673ffffffffffffffffffffffffffffffffffffffff16815260200190815260200160002060006101000a81548160ff0219169083151502179055506114518061006a6000396000f300608060405260043610610107576000357c0100000000000000000000000000000000000000000000000000000000900463ffffffff168063061c88001461010c5780630b33ab7714610155578063173825d9146101865780631d60084b146101c9578063235913f51461021257806331477b9b1461026957806348bfab58146103215780637065cb481461036a57806379a7cfee146103ad5780637a6ad9261461040c57806398eaf11c1461045f578063a6fbf3d2146104b6578063b0b04d0b14610509578063b4bfee4b14610534578063c7750f291461058b578063d3a3968614610643578063d939bb0a146106c2578063de8c594614610707578063f0f53ee414610738575b600080fd5b34801561011857600080fd5b506101536004803603810190808035600019169060200190929190803560001916906020019092919080359060200190929190505050610783565b005b34801561016157600080fd5b50610184600480360381019080803560001916906020019092919050505061081b565b005b34801561019257600080fd5b506101c7600480360381019080803573ffffffffffffffffffffffffffffffffffffffff1690602001909291905050506108f8565b005b3480156101d557600080fd5b506102106004803603810190808035600019169060200190929190803560001916906020019092919080359060200190929190505050610a20565b005b34801561021e57600080fd5b5061026760048036038101908080356000191690602001909291908035600019169060200190929190803590602001908201803590602001919091929391929390505050610ab8565b005b34801561027557600080fd5b506102a660048036038101908080356000191690602001909291908035600019169060200190929190505050610b5c565b6040518080602001828103825283818151815260200191508051906020019080838360005b838110156102e65780820151818401526020810190506102cb565b50505050905090810190601f1680156103135780820380516001836020036101000a031916815260200191505b509250505060405180910390f35b34801561032d57600080fd5b5061034c60048036038101908080359060200190929190505050610c36565b60405180826000191660001916815260200191505060405180910390f35b34801561037657600080fd5b506103ab600480360381019080803573ffffffffffffffffffffffffffffffffffffffff169060200190929190505050610c59565b005b3480156103b957600080fd5b5061040a60048036038101908080356000191690602001909291908035600019169060200190929190803573ffffffffffffffffffffffffffffffffffffffff169060200190929190505050610d46565b005b34801561041857600080fd5b5061044960048036038101908080356000191690602001909291908035600019169060200190929190505050610e18565b6040518082815260200191505060405180910390f35b34801561046b57600080fd5b5061049c60048036038101908080356000191690602001909291908035600019169060200190929190505050610e5a565b604051808215151515815260200191505060405180910390f35b3480156104c257600080fd5b506104f360048036038101908080356000191690602001909291908035600019169060200190929190505050610ea9565b6040518082815260200191505060405180910390f35b34801561051557600080fd5b5061051e610eeb565b6040518082815260200191505060405180910390f35b34801561054057600080fd5b5061058960048036038101908080356000191690602001909291908035600019169060200190929190803590602001908201803590602001919091929391929390505050610ef8565b005b34801561059757600080fd5b506105c860048036038101908080356000191690602001909291908035600019169060200190929190505050610f9c565b6040518080602001828103825283818151815260200191508051906020019080838360005b838110156106085780820151818401526020810190506105ed565b50505050905090810190601f1680156106355780820380516001836020036101000a031916815260200191505b509250505060405180910390f35b34801561064f57600080fd5b5061068060048036038101908080356000191690602001909291908035600019169060200190929190505050611076565b604051808273ffffffffffffffffffffffffffffffffffffffff1673ffffffffffffffffffffffffffffffffffffffff16815260200191505060405180910390f35b3480156106ce57600080fd5b506106f160048036038101908080356000191690602001909291905050506110d8565b6040518082815260200191505060405180910390f35b34801561071357600080fd5b5061073660048036038101908080356000191690602001909291905050506110f0565b005b34801561074457600080fd5b5061078160048036038101908080356000191690602001909291908035600019169060200190929190803515159060200190929190505050611204565b005b6000803373ffffffffffffffffffffffffffffffffffffffff1673ffffffffffffffffffffffffffffffffffffffff16815260200190815260200160002060009054906101000a900460ff1615156107da57600080fd5b806001600085600019166000191681526020019081526020016000206003016000846000191660001916815260200190815260200160002081905550505050565b6000803373ffffffffffffffffffffffffffffffffffffffff1673ffffffffffffffffffffffffffffffffffffffff16815260200190815260200160002060009054906101000a900460ff16151561087257600080fd5b600281908060018154018082558091505090600182039060005260206000200160009091929091909150906000191690555060016002805490500360036000836000191660001916815260200190815260200160002081905550602060405190810160405260016000836000191660001916815260200190815260200160002090505050565b6000803373ffffffffffffffffffffffffffffffffffffffff1673ffffffffffffffffffffffffffffffffffffffff16815260200190815260200160002060009054906101000a900460ff16151561094f57600080fd5b600073ffffffffffffffffffffffffffffffffffffffff168173ffffffffffffffffffffffffffffffffffffffff161415151561098b57600080fd5b3373ffffffffffffffffffffffffffffffffffffffff168173ffffffffffffffffffffffffffffffffffffffff16141515156109c657600080fd5b60008060008373ffffffffffffffffffffffffffffffffffffffff1673ffffffffffffffffffffffffffffffffffffffff16815260200190815260200160002060006101000a81548160ff02191690831515021790555050565b6000803373ffffffffffffffffffffffffffffffffffffffff1673ffffffffffffffffffffffffffffffffffffffff16815260200190815260200160002060009054906101000a900460ff161515610a7757600080fd5b806001600085600019166000191681526020019081526020016000206000016000846000191660001916815260200190815260200160002081905550505050565b6000803373ffffffffffffffffffffffffffffffffffffffff1673ffffffffffffffffffffffffffffffffffffffff16815260200190815260200160002060009054906101000a900460ff161515610b0f57600080fd5b8181600160008760001916600019168152602001908152602001600020600101600086600019166000191681526020019081526020016000209190610b559291906112af565b5050505050565b6060600160008460001916600019168152602001908152602001600020600101600083600019166000191681526020019081526020016000208054600181600116156101000203166002900480601f016020809104026020016040519081016040528092919081815260200182805460018160011615610100020316600290048015610c295780601f10610bfe57610100808354040283529160200191610c29565b820191906000526020600020905b815481529060010190602001808311610c0c57829003601f168201915b5050505050905092915050565b600281815481101515610c4557fe5b906000526020600020016000915090505481565b6000803373ffffffffffffffffffffffffffffffffffffffff1673ffffffffffffffffffffffffffffffffffffffff16815260200190815260200160002060009054906101000a900460ff161515610cb057600080fd5b600073ffffffffffffffffffffffffffffffffffffffff168173ffffffffffffffffffffffffffffffffffffffff1614151515610cec57600080fd5b60016000808373ffffffffffffffffffffffffffffffffffffffff1673ffffffffffffffffffffffffffffffffffffffff16815260200190815260200160002060006101000a81548160ff02191690831515021790555050565b6000803373ffffffffffffffffffffffffffffffffffffffff1673ffffffffffffffffffffffffffffffffffffffff16815260200190815260200160002060009054906101000a900460ff161515610d9d57600080fd5b806001600085600019166000191681526020019081526020016000206002016000846000191660001916815260200190815260200160002060006101000a81548173ffffffffffffffffffffffffffffffffffffffff021916908373ffffffffffffffffffffffffffffffffffffffff160217905550505050565b60006001600084600019166000191681526020019081526020016000206000016000836000191660001916815260200190815260200160002054905092915050565b60006001600084600019166000191681526020019081526020016000206005016000836000191660001916815260200190815260200160002060009054906101000a900460ff16905092915050565b60006001600084600019166000191681526020019081526020016000206003016000836000191660001916815260200190815260200160002054905092915050565b6000600280549050905090565b6000803373ffffffffffffffffffffffffffffffffffffffff1673ffffffffffffffffffffffffffffffffffffffff16815260200190815260200160002060009054906101000a900460ff161515610f4f57600080fd5b8181600160008760001916600019168152602001908152602001600020600401600086600019166000191681526020019081526020016000209190610f9592919061132f565b5050505050565b6060600160008460001916600019168152602001908152602001600020600401600083600019166000191681526020019081526020016000208054600181600116156101000203166002900480601f0160208091040260200160405190810160405280929190818152602001828054600181600116156101000203166002900480156110695780601f1061103e57610100808354040283529160200191611069565b820191906000526020600020905b81548152906001019060200180831161104c57829003601f168201915b5050505050905092915050565b60006001600084600019166000191681526020019081526020016000206002016000836000191660001916815260200190815260200160002060009054906101000a900473ffffffffffffffffffffffffffffffffffffffff16905092915050565b60036020528060005260406000206000915090505481565b6000806000803373ffffffffffffffffffffffffffffffffffffffff1673ffffffffffffffffffffffffffffffffffffffff16815260200190815260200160002060009054906101000a900460ff16151561114a57600080fd5b600360008460001916600019168152602001908152602001600020549150600260016002805490500381548110151561117f57fe5b9060005260206000200154905060036000846000191660001916815260200190815260200160002060009055806002838154811015156111bb57fe5b90600052602060002001816000191690555060028054809190600190036111e291906113af565b5060016000846000191660001916815260200190815260200160002050505050565b6000803373ffffffffffffffffffffffffffffffffffffffff1673ffffffffffffffffffffffffffffffffffffffff16815260200190815260200160002060009054906101000a900460ff16151561125b57600080fd5b806001600085600019166000191681526020019081526020016000206005016000846000191660001916815260200190815260200160002060006101000a81548160ff021916908315150217905550505050565b828054600181600116156101000203166002900490600052602060002090601f016020900481019282601f106112f057803560ff191683800117855561131e565b8280016001018555821561131e579182015b8281111561131d578235825591602001919060010190611302565b5b50905061132b91906113db565b5090565b828054600181600116156101000203166002900490600052602060002090601f016020900481019282601f1061137057803560ff191683800117855561139e565b8280016001018555821561139e579182015b8281111561139d578235825591602001919060010190611382565b5b5090506113ab91906113db565b5090565b8154818355818111156113d6578183600052602060002091820191016113d59190611400565b5b505050565b6113fd91905b808211156113f95760008160009055506001016113e1565b5090565b90565b61142291905b8082111561141e576000816000905550600101611406565b5090565b905600a165627a7a723058201818a993866c4a6b70b7e4a4914dfaf508ed09a53e610aa10dde7e7bf47e6e420029",
  "source": "pragma solidity ^0.4.22;\n\nimport \"./multi-ownable.sol\";\n\ncontract Storage is MultiOwnable{\n\n  struct Record {\n    mapping(bytes32 => uint) uintMap;\n    mapping(bytes32 => string) stringMap;\n    mapping(bytes32 => address) addressMap;\n    mapping(bytes32 => int) intMap;\n    mapping(bytes32 => bytes) bytesMap;\n    mapping(bytes32 => bool) boolMap;\n  }\n\n  mapping(bytes32 => Record) private recordMap;\n\n  bytes32[] public handleList;\n  mapping(bytes32 => uint) public handleMap;\n\n  function addHandle(bytes32 handleToAdd) \n    external\n    onlyOwner\n  {\n    handleList.push(handleToAdd);\n    handleMap[handleToAdd] = handleList.length - 1;\n    recordMap[handleToAdd] = Record();\n  }\n\n  function removeHandle(bytes32 handleToRemove)\n    external\n    onlyOwner\n  {\n    uint handleIndex = handleMap[handleToRemove];\n    bytes32 handleToMove = handleList[handleList.length - 1];\n\n    // remove the handle list\n    delete handleMap[handleToRemove];\n\n    // cleanup and defrag the handle list\n    handleList[handleIndex] = handleToMove;\n    handleList.length--;\n\n    // delete the handle record\n    delete recordMap[handleToRemove];\n  }\n\n  function getHandleCount()\n    external\n    view\n    returns(uint count)\n  {\n    return handleList.length;\n  }\n\n  function setUint(bytes32 handle, bytes32 key, uint value)\n    external\n    onlyOwner\n  {\n    recordMap[handle].uintMap[key] = value;\n  }\n\n  function getUint(bytes32 handle, bytes32 key) \n    external\n    view\n    returns(uint value)\n  {\n    return recordMap[handle].uintMap[key];\n  }\n\n  function setString(bytes32 handle, bytes32 key, string value)\n    external\n    onlyOwner\n  {\n    recordMap[handle].stringMap[key] = value;\n  }\n\n  function getString(bytes32 handle, bytes32 key) \n    external\n    view\n    returns(string value)\n  {\n    return recordMap[handle].stringMap[key];\n  }\n\n  function setAddress(bytes32 handle, bytes32 key, address value)\n    external\n    onlyOwner\n  {\n    recordMap[handle].addressMap[key] = value;\n  }\n\n  function getAddress(bytes32 handle, bytes32 key) \n    external\n    view\n    returns(address value)\n  {\n    return recordMap[handle].addressMap[key];\n  }\n\n  function setInt(bytes32 handle, bytes32 key, int value)\n    external\n    onlyOwner\n  {\n    recordMap[handle].intMap[key] = value;\n  }\n\n  function getInt(bytes32 handle, bytes32 key) \n    external\n    view\n    returns(int value)\n  {\n    return recordMap[handle].intMap[key];\n  }\n\n  function setBytes(bytes32 handle, bytes32 key, bytes value)\n    external\n    onlyOwner\n  {\n    recordMap[handle].bytesMap[key] = value;\n  }\n\n  function getBytes(bytes32 handle, bytes32 key) \n    external\n    view\n    returns(bytes value)\n  {\n    return recordMap[handle].bytesMap[key];\n  }\n\n  function setBool(bytes32 handle, bytes32 key, bool value)\n    external\n    onlyOwner\n  {\n    recordMap[handle].boolMap[key] = value;\n  }\n\n  function getBool(bytes32 handle, bytes32 key) \n    external\n    view\n    returns(bool value)\n  {\n    return recordMap[handle].boolMap[key];\n  }\n}\n\n",
  "sourcePath": "@pheme-kit/ethereum/contracts/storage.sol",
  "compiler": {
    "name": "solc",
    "version": "0.4.25+commit.59dbf8f1.Emscripten.clang"
  },
  "schemaVersion": "3.0.1",
  "updatedAt": "2019-01-16T22:19:06.060Z",
  "devdoc": {
    "methods": {
      "addOwner(address)": {
        "details": "Allows the current owner to add a new owner to the owners group.",
        "params": {
          "owner": "The address to add to the owners group."
        }
      },
      "removeOwner(address)": {
        "details": "Allows the current owner to remove an owner from the owners group.",
        "params": {
          "owner": "The address to remove from the owners group."
        }
      }
    }
  },
  "userdoc": {
    "methods": {}
  }
}